:020000040800F2
:1000000000000120F1280008B1090008B309000828
:10001000B5090008B7090008B90900080000000088
:10002000000000000000000000000000BB09000804
:10003000BD09000800000000BF090008C109000850
:1000400041290008412900084129000841290008E8
:1000500041290008412900084129000841290008D8
:1000600041290008412900084129000841290008C8
:1000700041290008412900084129000841290008B8
:1000800041290008412900084129000841290008A8
:100090004129000841290008412900084129000898
:1000A0004129000841290008412900084129000888
:1000B000412900080000000000000000412900085C
:1000C000412900080000000000000000412900084C
:1000D000000000004129000841290008000000003C
:1000E000412900084129000800000000000000002C
:1000F0000000000000000000000000000000000000
:10010000000000000000000000000000412900087D
:1001100000000000000000004129000841290008FB
:100120004129000841290008412900084129000807
:10013000412900080000000000000000000000004D
:1001400041290008412900084129000841290008E7
:1001500041290008412900084129000841290008D7
:100160004129000841290008412900080000000039
:10017000412900084129000800000000000000009B
:100180004129000841290008412900080000000019
:100190000348044B834202D0034B03B11847704716
:1001A0001000002010000020000000000548064953
:1001B0000B1AD90F01EBA301491002D0034B03B175
:1001C00018477047100000201000002000000000B9
:1001D00010B5064C237843B9FFF7DAFF044B13B18F
:1001E0000448AFF300800123237010BD10000020ED
:1001F000000000004429000808B5044B1BB1044965
:100200000448AFF30080BDE80840CFE700000000DD
:10021000140000204429000870B50D4E0D4D761BCA
:10022000B61006D0002455F8043B01349847A64286
:10023000F9D1094E094D761B02F084FBB61006D0A9
:10024000002455F8043B01349847A642F9D170BD0B
:10025000B0290008B0290008B4290008B029000816
:10026000830730B548D0541E002A3FD0CAB2034697
:1002700001E0013C3AD303F8012B9D07F9D1032C8F
:100280002DD9CDB245EA05250F2C45EA054536D9CD
:10029000A4F1100222F00F0C03F1200EE6444FEA05
:1002A000121C03F1100242E9045542E902551032D2
:1002B0007245F8D10CF1010214F00C0F03EB02129D
:1002C00004F00F0C13D0ACF1040323F00303043348
:1002D000134442F8045B9342FBD10CF003042CB1AD
:1002E000CAB21C4403F8012B9C42FBD130BD6446CA
:1002F0001346002CF4D1F9E703461446BFE71A462B
:10030000A446E0E753B94AB9002908BF00281CBF3A
:100310004FF0FF314FF0FF3000F074B9ADF1080C31
:100320006DE904CE00F006F8DDF804E0DDE9022313
:1003300004B070472DE9F047089D04468E46002B17
:100340004DD18A42944669D9B2FA82F252B101FA89
:1003500002F3C2F1200120FA01F10CFA02FC41EA99
:10036000030E94404FEA1C48210CBEFBF8F61FFA1E
:100370008CF708FB16E341EA034306FB07F19942B9
:100380000AD91CEB030306F1FF3080F01F8199426C
:1003900040F21C81023E63445B1AA4B2B3FBF8F046
:1003A00008FB103344EA034400FB07F7A7420AD9CD
:1003B0001CEB040400F1FF3380F00A81A74240F2F5
:1003C00007816444023840EA0640E41B00261DB160
:1003D000D4400023C5E900433146BDE8F0878B4295
:1003E00009D9002D00F0EF800026C5E90001304654
:1003F0003146BDE8F087B3FA83F6002E4AD18B422E
:1004000002D3824200F2F980841A61EB03030120D7
:100410009E46002DE0D0C5E9004EDDE702B9FFDEC3
:10042000B2FA82F2002A40F09280A1EB0C014FEA6E
:100430001C471FFA8CFE0126200CB1FBF7F307FBCB
:10044000131140EA01410EFB03F0884208D91CEB6E
:10045000010103F1FF3802D2884200F2CB8043460B
:10046000091AA4B2B1FBF7F007FB101144EA0144EA
:100470000EFB00FEA64508D91CEB040400F1FF3179
:1004800002D2A64500F2BB800846A4EB0E0440EA67
:1004900003409CE7C6F12007B34022FA07FC4CEA70
:1004A000030C20FA07F401FA06F31C43F9404FEA63
:1004B0001C4900FA06F3B1FBF9F8200C1FFA8CFE78
:1004C00009FB181140EA014108FB0EF0884202FACC
:1004D00006F20BD91CEB010108F1FF3A80F088808D
:1004E000884240F28580A8F102086144091AA4B24A
:1004F000B1FBF9F009FB101144EA014100FB0EFECB
:100500008E4508D91CEB010100F1FF346CD28E45F9
:100510006AD90238614440EA0840A0FB0294A1EB8A
:100520000E01A142C846A64656D353D05DB1B3EBE7
:10053000080261EB0E0101FA07F722FA06F3F14017
:100540001F43C5E9007100263146BDE8F087C2F1BE
:100550002003D8400CFA02FC21FA03F39140014336
:100560004FEA1C471FFA8CFEB3FBF7F007FB10366F
:100570000B0C43EA064300FB0EF69E4204FA02F41B
:1005800008D91CEB030300F1FF382FD29E422DD96E
:10059000023863449B1B89B2B3FBF7F607FB1633A3
:1005A00041EA034106FB0EF38B4208D91CEB010123
:1005B00006F1FF3816D28B4214D9023E6144C91AA3
:1005C00046EA004638E72E46284605E70646E3E6B3
:1005D0001846F8E64B45A9D2B9EB020864EB0C0EBD
:1005E0000138A3E74646EAE7204694E74046D1E7CC
:1005F000D0467BE7023B614432E7304609E764447A
:10060000023842E7704700BF30B589B00024039438
:100610000494059406940794164BDA6C42F0040295
:10062000DA64DA6C02F004020092009ADA6C42F0AA
:100630000102DA64DA6C02F001020192019ADA6CCA
:1006400042F00202DA64DB6C03F002030293029BC5
:10065000094D22460821284601F01CFE0823039379
:10066000012304930594069403A9284601F03AFD5A
:1006700009B030BD0010024000040048024B1B6866
:1006800058639963DA6370472C00002072B6FEE766
:1006900008B50B480B4B03604FF4E1334360002374
:1006A0008360C36003610C2242618361C3610362A2
:1006B000436202F0E2F800B908BDFFF7E7FF00BFB0
:1006C000C40000200044004010B596B000241394EC
:1006D000149415940C940D940E940F9410941194FA
:1006E00012942C22214601A8FFF7BAFD2C482D4B6D
:1006F000036040F2675343608460FE23C36004617B
:100700004461846100F06CFB00283DD10023139309
:100710001493159313A9224800F012FD002835D137
:1007200060230C9300220D920E920F921092119260
:1007300012920CA91A4800F0BFFB48BB04220CA976
:10074000174800F0B9FB28BB08220CA9144800F098
:10075000B3FB08BB00230193029303930493059317
:100760004FF400520692079308934FF000720992DB
:100770000A930B9301A90A4800F01AFD70B90848C2
:1007800000F060F916B010BDFFF780FFFFF77EFFA5
:10079000FFF77CFFFFF77AFFFFF778FFFFF776FFA1
:1007A0002C000020002C014000B58BB000230793E3
:1007B0000893099300930193029303930493059381
:1007C000069317484FF080420260436083604FF009
:1007D000FF32C2600361836100F002FBC8B90023ED
:1007E0000793099307A90E4800F0AAFC98B9602363
:1007F000009300230193029304930422694608485E
:1008000000F05AFB48B9064800F01CF90BB05DF83F
:1008100004FBFFF73BFFFFF739FFFFF737FF00BF90
:100820007800002000B597B04422002105A8FFF70A
:1008300017FD0023009301930293039304934FF455
:10084000007001F03DFD002831D101F029FD1B4A67
:10085000D2F8903023F01803C2F890301423059397
:10086000012307930B9300220C9260220D92022227
:100870000F92109311931023129307231393149242
:10088000159205A800F0D8FD98B90F230093032313
:10089000019300230293039304930121684601F01E
:1008A00001F940B901F016FC17B05DF804FBFFF741
:1008B000EDFEFFF7EBFEFFF7E9FE00BF0010024080
:1008C00008B500F0E1FCFFF7ADFFFFF79DFEFFF775
:1008D000DFFEFFF7F9FEFFF767FF344C00212046EB
:1008E00000F096FB0421204600F092FB08212046F0
:1008F00000F08EFB00221146FF20FFF7BFFE4FF4F1
:10090000966000F0E3FC0022FF211046FFF7B6FEE0
:100910004FF4966000F0DAFCFF2200210846FFF752
:10092000ADFE4FF4966000F0D1FCFF22002110468E
:10093000FFF7A4FE4FF4966000F0C8FC0022FF21F0
:100940000846FFF79BFE4FF4966000F0BFFCFF22C5
:1009500011460020FFF792FE4FF4966000F0B6FCBF
:100960007F220021FF20FFF789FE4FF4966000F000
:10097000ADFCFF2200217F20FFF780FE4FF4966040
:1009800000F0A4FC00227F21FF20FFF777FE4FF448
:10099000966000F09BFCFA22E6210846FFF76EFE07
:1009A0004FF4966000F092FCA4E700BF2C000020FA
:1009B000FEE7FEE7FEE7FEE7FEE770477047704799
:1009C00008B500F071FC08BD82B00A4B1A6E42F007
:1009D00001021A661A6E02F001020092009A9A6DE4
:1009E00042F080529A659B6D03F080530193019B06
:1009F00002B070470010024082B003680F4A934271
:100A000004D0B3F1804F0CD002B070470C4B1A6E7B
:100A100042F400621A661B6E03F400630093009BAD
:100A2000F2E703F504339A6D42F001029A659B6D7B
:100A300003F001030193019BE6E700BF002C014096
:100A40000010024000B589B000230393049305937E
:100A50000693079303681B4A934205D0B3F1804F76
:100A600019D009B05DF804FB174BDA6C42F00102B3
:100A7000DA64DB6C03F001030193019B4FF4E06344
:100A80000393022304930123079303A94FF090409B
:100A900001F028FBE5E703F50433DA6C42F00102CC
:100AA000DA64DB6C03F001030293029B02230393DD
:100AB00004930123079303A94FF0904001F012FB28
:100AC000CFE700BF002C01400010024070B59CB081
:100AD000044600211791189119911A911B915422E3
:100AE00002A8FFF7BDFB22681E4B9A4201D01CB042
:100AF00070BD0223029302A801F078F900282ED1DC
:100B0000194B9A6D42F400329A659A6D02F40032E4
:100B10000092009ADA6C42F00102DA64DB6C03F0B6
:100B200001030193019B04231793022618960025C5
:100B3000199503241A9407231B9317A94FF090408B
:100B400001F0D0FA4FF400431793189619951A94B0
:100B50001B9417A94FF0904001F0C4FAC7E7FFF7C4
:100B600095FDCDE7004400400010024030B4036A18
:100B700023F001030362036A4568826922F480322C
:100B800022F073020C68224323F002038C68234393
:100B9000154CA04207D004F5A054A04203D004F5A0
:100BA0008064A04205D123F00803CC68234323F0DE
:100BB00004030D4CA04207D004F5A054A04203D07A
:100BC00004F58064A04207D125F4407C4C6944EAD6
:100BD0000C0C8D6945EA0C05456082614A684263E8
:100BE000036230BC704700BF002C014030B4036A80
:100BF00023F480730362036A4468C26922F480327A
:100C000022F073020D682A4323F400738D6843EACF
:100C10000523124DA84219D0104DA84207D005F562
:100C2000A055A84203D005F58065A84207D124F459
:100C300040544D6944EA05148D6944EA0514446042
:100C4000C2614A68C263036230BC704723F4006328
:100C5000CD6843EA052323F48063DDE7002C0140DF
:100C600030B4036A23F480530362026A4468C369A0
:100C700023F0807323F4E6430D6843EA052322F44E
:100C800000528D6842EA05320B4DA84207D005F5A7
:100C9000A055A84203D005F58065A84204D124F4EC
:100CA00080444D6944EA85144460C3614B68036421
:100CB000026230BC704700BF002C014030B4036AB0
:100CC00023F480330362036A4468426D22F4803265
:100CD00022F070020D682A4323F400338D6843EA42
:100CE00005430B4DA84207D005F5A055A84203D0F7
:100CF00005F58065A84204D124F480344D6944EAA6
:100D00000524446042654A688265036230BC7047CE
:100D1000002C014030B4036A23F480130362026A9A
:100D20004468436D23F0807323F4E0430D6843EA85
:100D3000052322F400128D6842EA05520B4DA842A9
:100D400007D005F5A055A84203D005F58065A84257
:100D500004D124F480244D6944EA85244460436529
:100D60004B68C365026230BC704700BF002C014075
:100D700003681A4A904202D0B0F1804F03D123F0A9
:100D800070034A681343154A90420AD0B0F1804F6D
:100D900007D002F5A052904203D002F58062904243
:100DA00003D123F44073CA68134323F080034A69D4
:100DB000134303608B68C3620B688362074B9842DE
:100DC00007D003F5A053984203D003F580639842FF
:100DD00001D10B690363012343617047002C01407B
:100DE00060B310B5044690F83D3013B3022384F885
:100DF0003D30214651F8040BFFF7BAFF012384F878
:100E0000483084F83E3084F83F3084F8403084F82D
:100E1000413084F8423084F8433084F8443084F818
:100E2000453084F8463084F8473084F83D3000205F
:100E300010BD80F83C30FFF7DFFDD7E70120704799
:100E400030B4036A23F010030362036A44688269C2
:100E500022F0807222F4E6420D6842EA052223F075
:100E600020038D6843EA0513124DA84219D0114D95
:100E7000A84207D005F5A055A84203D005F5806526
:100E8000A84207D124F440644D6944EA85048D6981
:100E900044EA8504446082614A688263036230BC2C
:100EA000704723F08003CD6843EA051323F0400325
:100EB000DDE700BF002C014038B590F83C30012B35
:100EC00000F0958004460D46012380F83C30142A3A
:100ED00000F28880DFE802F00B8686861F86868611
:100EE00034868686488686865D868686710000689A
:100EF000FFF73CFE2268936943F008039361226880
:100F0000936923F0040393612268936929690B4371
:100F10009361002067E00068FFF792FF2268936901
:100F200043F4006393612268936923F480639361BF
:100F300022689369296943EA01239361002052E002
:100F40000068FFF753FE2268D36943F00803D361BA
:100F50002268D36923F00403D3612268D369296925
:100F60000B43D36100203EE00068FFF779FE226862
:100F7000D36943F40063D3612268D36923F48063A7
:100F8000D3612268D369296943EA0123D361002030
:100F900029E00068FFF792FE2268536D43F00803D2
:100FA00053652268536D23F0040353652268536D23
:100FB00029690B435365002015E00068FFF7AAFE7E
:100FC0002268536D43F4006353652268536D23F424
:100FD000806353652268536D296943EA0123536591
:100FE000002000E00120002384F83C3038BD0220BE
:100FF000FCE701F01F01012303FA01FC036A23EA65
:101000000C030362036A02FA01F10B4303627047A7
:1010100010B504460846002932D194F83E30DBB2C0
:10102000013B18BF0123002B7FD1002853D102239D
:1010300084F83E30012201462068FFF7DAFF23687A
:101040003D4A934207D002F5A052934203D002F5E5
:101050008062934203D15A6C42F400425A6423687E
:10106000354A934253D0B3F1804F50D002F5A0528D
:1010700093424CD01A6842F001021A60002055E0F9
:1010800004290CD0082911D00C2916D010291BD006
:1010900094F84330DBB2013B18BF0123C3E794F857
:1010A0003F30DBB2013B18BF0123BCE794F840306E
:1010B000DBB2013B18BF0123B5E794F84130DBB246
:1010C000013B18BF0123AEE794F84230DBB2013B8D
:1010D00018BF0123A7E7042809D008280BD00C2843
:1010E0000DD010280FD0022384F84330A2E702234A
:1010F00084F83F309EE7022384F840309AE70223C9
:1011000084F8413096E7022384F8423092E79968E8
:101110000A4A0A40062A0AD0B2F5803F09D01A6866
:1011200042F001021A60002000E0012010BD002002
:10113000FCE70020FAE700BF002C01400700010097
:1011400090F83C30012B2FD030B4012380F83C3094
:10115000022380F83D30026853689468134DAA4218
:101160001DD023F070030D682B43536003680F4AB2
:10117000934206D0B3F1804F03D002F5A0529342C0
:1011800004D124F080048A6814439C60012380F811
:101190003D30002380F83C30184630BC704723F4C3
:1011A00070034D682B43DCE702207047002C0140A0
:1011B00090F83C30012B3BD010B4012380F83C3038
:1011C000CB6823F440738A68134323F480634A682E
:1011D000134323F400630A68134323F480530A691A
:1011E000134323F400534A69134323F480438A6A68
:1011F000134323F470238A6943EA024302680D4CC7
:10120000A24207D05364002380F83C3018465DF8B2
:10121000044B704723F470034C6A43EA045323F0F1
:101220008073CC69234323F00073096A0B43E9E719
:1012300002207047002C0140104B1B780BB9012095
:10124000704710B504464FF47A70B0FBF3F30C4AC4
:101250001068B0FBF3F001F0C5F868B90F2C01D9A4
:1012600001200AE0002221464FF0FF3001F082F811
:10127000044B1C60002000E0012010BD0000002095
:10128000080000200400002010B5032001F060F8E1
:101290000020FFF7D1FF10B10124204610BD044605
:1012A000FFF792FBF9E70000034B1B78034A116834
:1012B0000B441360704700BF00000020480100206D
:1012C000014B1868704700BF4801002038B504463C
:1012D000FFF7F6FF0546B4F1FF3F02D0044B1B7841
:1012E0001C44FFF7EDFF401BA042FAD338BD00BFFE
:1012F0000000002030B583B00446204B9B6D13F0F6
:10130000805F0BD000F0D4FFB0F5007F17D0802CA9
:101310001FD82DD0702C2DD000211BE0174DAB6DA8
:1013200043F08053AB65AB6D03F080530193019B99
:1013300000F0BEFFAB6D23F08053AB65E4E7802C7B
:1013400003D9A02C03D9022104E0002102E00121ED
:1013500000E003210A4A136823F007030B431360DC
:10136000136803F007038B4206D1002003B030BDA1
:101370000221EFE70121EDE70120F7E7001002402D
:1013800000200240284A9368D26802F0030213F05A
:101390000C030AD00C2B06D0042B1FD0082B20D016
:1013A0000020024610E0012AF6D11F4A126812F00E
:1013B000080F0CD11C4AD2F89420C2F303221B4917
:1013C00051F8222043B100200C2B0DD07047164A53
:1013D0001268C2F30312F2E71046F5E71448002240
:1013E000F2E714480022EFE70F4BDB6803F003033A
:1013F000022B16D0032B00D10E4A0B49C868C0F34C
:101400000210431CC868C0F3062002FB00F0B0FBCA
:10141000F3F0CB68C3F3416301335B00B0FBF3F03F
:10142000D4E7034AE9E700BF00100240782900082A
:101430000024F40000127A00002800F01C83F0B5AC
:1014400083B00446964B9D6805F00C05DE6806F0F7
:101450000306036813F0100F5AD0E5B10C2D18D015
:10146000A369002B00F0BB808D4A136843F0010391
:101470001360FFF725FF0746894B1B6813F0020F27
:1014800040F09A80FFF71CFFC01B0228F4D903200C
:10149000FCE2012EE4D1824B1B6813F0020F03D053
:1014A000A369002B00F0E982206A7D4B1B6813F0D2
:1014B000080F5BD07A4B1B6803F0F00398425CD8AE
:1014C000774B1A6842F008021A601A6822F0F0029C
:1014D000216A0A431A605A6822F47F42E16942EAAB
:1014E00001225A60002D60D0FFF74CFF6C4B9B68C7
:1014F000C3F303136B4AD35C03F01F03D8406A4B5A
:1015000018606A4B1868FFF797FE002840F0BE820B
:10151000236813F0010F00F08180082D75D00C2D89
:1015200071D06368B3F5803F00F09780B3F5A02FCA
:1015300000F099805A4B1A6822F480321A601A68B7
:1015400022F480221A606368002B00F09980FFF774
:10155000B7FE0746524B1B6813F4003F5ED1FFF7FE
:10156000AFFEC01B6428F5D903208FE24C4BD3F8A3
:1015700094301B0903F0F003A0E7FFF7BBFE00283F
:1015800040F07D82464B1A6842F008021A601A68E1
:1015900022F0F002216A0A431A605A6822F47F425C
:1015A000E16942EA01225A609EE7206AFFF7A2FE43
:1015B000002899D0012069E2394B1A6842F00802EC
:1015C0001A601A6822F0F002216A0A431A605A6807
:1015D00022F47F42E16942EA01225A6098E7304AE8
:1015E000136823F001031360FFF76AFE07462C4BD4
:1015F0001B6813F0020F8BD0FFF762FEC01B02289E
:10160000F5D9032042E2032E8BD1254B1B6813F43E
:10161000003F03D06368002B00F03382236813F08F
:10162000020F58D0042D45D00C2D41D0E368002B7B
:1016300077D01B4A136843F480731360FFF740FEB2
:101640000646174B1B6813F4806F61D1FFF738FE15
:10165000801B0228F5D9032018E2114A136843F4CD
:10166000803313606FE703F18043A3F53C331A68BE
:1016700042F480221A601A6842F480321A6062E7EB
:10168000FFF71EFE0746064B1B6813F4003FC5D04C
:10169000FFF716FEC01B6428F5D90320F6E100BF52
:1016A000001002406029000808000020040000200B
:1016B000022EBBD1A44B1B6813F4806F03D0E368E8
:1016C000002B00F0E081A04A536823F0F853216911
:1016D00043EA01635360236813F0080F4CD0636939
:1016E0009BB3994AD2F8943043F00103C2F8943086
:1016F000FFF7E6FD0646944BD3F8943013F0020F43
:101700003AD1FFF7DDFD801B0228F4D90320BDE1AB
:101710008D4A536823F0F853216943EA016353600B
:10172000D9E7894A136823F480731360FFF7C8FD73
:101730000646854B1B6813F4806FCCD0FFF7C0FDC5
:10174000801B0228F5D90320A0E17F4AD2F894300B
:1017500023F00103C2F89430FFF7B2FD06467A4B3E
:10176000D3F8943013F0020F06D0FFF7A9FD801BC9
:101770000228F4D9032089E1236813F0040F7AD0FA
:10178000714B9B6D13F0805F36D16F4B9A6D42F0B9
:1017900080529A659B6D03F080530193019B012653
:1017A0006A4B1B6813F4807F28D0A368012B39D0C3
:1017B000052B3FD0644BD3F8902022F00102C3F8F0
:1017C0009020D3F8902022F00402C3F89020A36860
:1017D000002B3DD0FFF774FD07465B4BD3F89030EC
:1017E00013F0020F46D1FFF76BFDC01B41F28833A7
:1017F0009842F2D9032049E10026D1E7534A136801
:1018000043F480731360FFF75BFD07464F4B1B6883
:1018100013F4807FC9D1FFF753FDC01B0228F5D90F
:10182000032033E1484AD2F8903043F00103C2F874
:101830009030CCE7444BD3F8902042F00402C3F838
:101840009020D3F8902042F00102C3F89020BEE728
:10185000FFF736FD07463C4BD3F8903013F0020FEC
:1018600008D0FFF72DFDC01B41F288339842F2D912
:1018700003200BE1E6B9236813F0200F35D0636A2B
:10188000E3B1314AD2F8983043F00103C2F89830FE
:10189000FFF716FD06462C4BD3F8983013F0020FD5
:1018A00023D1FFF70DFD801B0228F4D90320EDE0C2
:1018B000254A936D23F080539365DCE7224AD2F8E2
:1018C000983023F00103C2F89830FFF7F9FC064680
:1018D0001D4BD3F8983013F0020F06D0FFF7F0FC41
:1018E000801B0228F4D90320D0E0A36A002B00F06B
:1018F000CC80022B17D00C2D00F0CC80124A13683C
:1019000023F080731360FFF7DBFC04460E4B1B686B
:1019100013F0007F00F0A880FFF7D2FC001B022824
:10192000F4D90320B2E0084BDB6803F00301E26A5C
:1019300091420DD00C2D00F0AB80034B1B6813F0CF
:10194000806F2FD00120A1E0001002400070004005
:1019500003F07002216B0139B2EB011FEAD103F4ED
:10196000FE42616BB2EB012FE4D103F07842A16B30
:10197000B2EBC16FDED103F4C001E26B5208013A51
:10198000B1EB425FD6D103F0C063226C5208013A3A
:10199000B3EB426FCED1404B1B6813F0007F49D0B0
:1019A000002073E03C4A136823F080731360FFF754
:1019B00087FC0546384B1B6813F0007F06D0FFF705
:1019C0007FFC401B0228F5D903205FE0324AD36830
:1019D00032491940E36A206B013843EA0013606B17
:1019E00043EA0023E06B4008013843EA4053206C8F
:1019F0004008013843EA4063A06B43EAC0630B43ED
:101A0000D360136843F080731360D36843F080732E
:101A1000D360FFF755FC04461F4B1B6813F0007F93
:101A200006D1FFF74DFC001B0228F5D903202DE05D
:101A300000202BE0184B1A6842F080721A60DA68B6
:101A400042F08072DA60FFF73BFC0446124B1B68E1
:101A500013F0007F06D1FFF733FC031B022BF5D9EF
:101A6000032013E0002011E00B4AD1680C4B0B401F
:101A7000D36000200AE001207047012006E0012029
:101A800004E0012002E0012000E0002003B0F0BDEE
:101A90000120FBE70120F9E7001002408C809D0146
:101AA000FCFFEEFE002800F0AF8070B50D46044646
:101AB000594B1B6803F007038B420BD2564A13683D
:101AC00023F007030B431360136803F007038B42F3
:101AD00040F09C80236813F0020F0CD0A2684F4B9B
:101AE0009B6803F0F0039A4205D94C498B6823F0B8
:101AF000F0031A438A60236813F0010F39D063683A
:101B0000032B09D0022B26D063BB444A126812F083
:101B1000020F06D1012076E0404A126812F0007FE1
:101B200076D03E498A6822F0030213438B60FFF7A8
:101B3000C7FB0646394B9B6803F00C036268B3EBA6
:101B4000820F16D0FFF7BCFB801B41F2883398420E
:101B5000F0D9032057E0314A126812F4003FE0D177
:101B6000012050E02D4A126812F4806FD9D1012073
:101B700049E0236813F0020F0CD0A268274B9B6842
:101B800003F0F0039A4205D224498B6823F0F00356
:101B90001A438A60204B1B6803F00703AB420AD943
:101BA0001D4A136823F007032B431360136803F0E7
:101BB0000703AB422ED1236813F0040F06D0174A57
:101BC000936823F4E063E1680B439360236813F0A8
:101BD000080F07D0114A936823F46053216943EA40
:101BE000C1039360FFF7CEFB0C4B9B68C3F3031359
:101BF0000B4AD35C03F01F03D8400A4B18600A4B12
:101C00001868FFF719FB70BD012070470120FAE743
:101C10000120F8E70120F6E7002002400010024012
:101C2000602900080800002004000020014B18680B
:101C3000704700BF0800002008B5FFF7F7FF054B0D
:101C40009B68C3F30223044AD35C03F01F03D8400C
:101C500008BD00BF001002407029000808B5FFF75A
:101C6000E5FF054B9B68C3F3C223044AD35C03F032
:101C70001F03D84008BD00BF0010024070290008B3
:101C8000F8B504460F46584BDB6813F0030F18D025
:101C9000554BDB6803F003030268934202D0012531
:101CA0002846F8BD002A00F09D804F4BDB68C3F347
:101CB000021301334268934201D00125F0E7002569
:101CC00009E00368022B56D0032B5BD0012B41D0D7
:101CD0000125002DE4D1444A136823F0806313608A
:101CE000FFF7EEFA0646404B1B6813F0006F05D075
:101CF000FFF7E6FA831B022BF5D90325002DCFD180
:101D0000002F4DD138490B6923F0784323F4FE436B
:101D1000A068E268D20642EA002213430B61324A0D
:101D2000136843F080631360FFF7CAFA06462E4B30
:101D30001B6813F0006F05D1FFF7C2FA831B022B5B
:101D4000F5D90325002DABD1274A1369A1690B43AF
:101D50001361A5E7244A126812F0020F1ED0224830
:101D6000C26822F073026168013943EA0113134328
:101D7000C3600025ADE71C4A126812F4806FEED1F3
:101D80000125A6E7184A126812F4003FE7D1164A67
:101D9000126812F4802FE2D101259AE7012598E715
:101DA000012F0FD01048026922F0C06222F4FE42D7
:101DB000A16863695B08013B5B0643EA01231343A7
:101DC0000361ACE70848026922F4C00222F4FE4233
:101DD000A16823695B08013B5B0543EA01231343C8
:101DE00003619CE701255BE7001002402DE9F0410B
:101DF00082B00446036813F4006F25D0C36BB3F5BB
:101E0000000F06D0B3F5400F12D04BB10126374674
:101E10001CE0AE4AD36843F48033D360002708E067
:101E200000210430FFF72CFF074610B106460DE0F5
:101E30000027A64AD2F8883023F44003E16B0B4315
:101E4000C2F88830002601E000263746236813F4E4
:101E5000003F6BD09D4B9B6D13F0805F4CD19B4B33
:101E60009A6D42F080529A659B6D03F08053019306
:101E7000019B4FF00108964A136843F48073136086
:101E8000FFF71EFA0546924B1B6813F4807F05D1BD
:101E9000FFF716FA401B0228F5D90327002F40D17F
:101EA0008A4BD3F8903013F4407315D0226D9A42C8
:101EB00012D0864AD2F8903023F44073D2F89010B2
:101EC00041F48031C2F89010D2F8901021F48031A2
:101ED000C2F89010C2F8903013F0010F0FD1002F0C
:101EE00040F0C980794AD2F8903023F44073216DD4
:101EF0000B43C2F8903015E04FF00008BBE7FFF746
:101F0000DFF90546714BD3F8903013F0020FE6D19C
:101F1000FFF7D6F9401B41F288339842F2D90327E4
:101F2000DDE73E46B8F1000F40F0A780236813F0CC
:101F3000010F08D0654AD2F8883023F00303216AE4
:101F40000B43C2F88830236813F0020F08D05F4AB1
:101F5000D2F8883023F00C03616A0B43C2F8883052
:101F6000236813F0200F08D0584AD2F8883023F4A1
:101F70004063A16A0B43C2F88830236813F4007FE2
:101F800008D0524AD2F8883023F44023616B0B43C7
:101F9000C2F88830236813F4806F08D04B4AD2F817
:101FA000883023F44013A16B0B43C2F888302368B8
:101FB00013F0400F08D0454AD2F8883023F440533C
:101FC000E16A0B43C2F88830236813F4807F08D09D
:101FD0003E4AD2F8883023F44033216B0B43C2F8D9
:101FE0008830236813F4005F0FD0384AD2F8883065
:101FF00023F04063216C0B43C2F88830236CB3F1AB
:10200000006F40D0B3F1806F42D0236813F4802F6B
:102010000FD02E4AD2F8883023F04063616C0B4316
:10202000C2F88830636CB3F1006F39D0B3F1806FC0
:102030003BD0236813F4804F0CD0244AD2F8883068
:1020400023F04053A16C0B43C2F88830A36CB3F16A
:10205000805F32D0236813F4004F08D01B4AD2F8B7
:10206000883023F08043E16C0B43C2F8883030465F
:1020700002B0BDE8F0813E4654E7144A936D23F068
:102080008053936552E7D36843F48013D360BCE771
:102090000121201DFFF7F4FD0028B6D00646B4E765
:1020A000D36843F48013D360C3E70121201DFFF7F9
:1020B000E7FD0028BDD00646BBE70221201DFFF743
:1020C000DFFD0028C6D00646C4E700BF001002406E
:1020D00000700040024A136843F004031360704725
:1020E00000100240F0B583B0002362E085685E0016
:1020F0000324B44025EA0405CC68B4402C43846032
:10210000446824EA0C0C4C68C4F300149C4044EA74
:102110000C0444605EE0DD08083550F8256003F0EB
:1021200007044FEA840C0F2404FA0CF426EA040E88
:102130000C6904FA0CF444EA0E0440F8254060E00F
:10214000022400E0002404FA0EF42C430CF1020CEB
:102150004C4D45F82C404C4CA568D44325EA02066A
:102160004F6817F4801F01D042EA0506464DAE6065
:10217000ED6804EA05064F6817F4001F01D042EA33
:102180000506414DEE606D6804EA05064F6817F4D8
:10219000003F01D042EA05063B4D6E602D682C40A1
:1021A0004E6816F4803F01D042EA0504364A1460B6
:1021B00001330A6832FA03F462D04FF0010C0CFAD2
:1021C00003FC1CEA0202F3D04C6804F00304013C57
:1021D000012C8BD94C6804F00304032C0CD0C46888
:1021E0005D004FF0030C0CFA05FC24EA0C0C8C6823
:1021F000AC4044EA0C04C4604C6804F00304022CB4
:1022000089D004684FEA430E4FF0030C0CFA0EFC21
:1022100024EA0C0C4C6804F0030404FA0EF444EABB
:102220000C0404604C6814F4403FC1D0174C256E78
:1022300045F001052566246E04F001040194019C1B
:102240004FEA930C0CF102050E4C54F8255003F0A4
:1022500003044FEA840E0F2404FA0EF425EA040561
:10226000B0F1904F3FF46EAF094CA04206D004F598
:102270008064A0423FF464AF072464E7012462E76E
:1022800003B0F0BD00000140000401400010024016
:10229000000400480AB18161704781627047000004
:1022A000024A136843F48073136070470070004063
:1022B000024B186800F4C060704700BF0070004017
:1022C000B0F5007F0FD01F4B1B6803F4C063B3F55C
:1022D000806F34D01B4A136823F4C06343F48063D7
:1022E000136000207047174B1B6803F4C063B3F5FD
:1022F000007F20D0134A136823F4C06343F40073B3
:102300001360114B1B68322202FB03F30F4AA2FB3E
:1023100003239B0C013300E0013B0A4A526912F48B
:10232000806F01D0002BF7D1064B5B6913F4806FEF
:1023300003D1002070470020704703207047002021
:10234000704700BF007000400800002083DE1B4380
:10235000074AD36823F4E0631B041B0C000200F45B
:10236000E060034343F0BF6343F40033D36070473E
:1023700000ED00E000B5194BDB68C3F30223C3F1A5
:10238000070CBCF1040F28BF4FF0040C03F1040E3E
:10239000BEF1060F18D9033B4FF0FF3E0EFA0CFCBE
:1023A00021EA0C0199400EFA03F322EA03031943D0
:1023B00000280BDB0901C9B200F1604000F5614063
:1023C00080F800135DF804FB0023E5E700F00F0040
:1023D0000901C9B2024B1954F4E700BF00ED00E057
:1023E00014ED00E00138B0F1807F0BD24FF0E02314
:1023F0005861054AF02182F82310002098610722D5
:102400001A6170470120704700ED00E010B50446E6
:10241000016883680269134342691343C269134325
:1024200008688C4A024013430B602268536823F407
:102430004053E1680B435360A1692268864B9A427E
:1024400001D0236A1943936823F430630B439360EC
:102450002368824A93421CD0814A93422DD07E4AFF
:10246000934243D010227C498B4260D0E069B0F5A2
:10247000004F00F08C80082A00F2E580DFE812F0BF
:10248000B400CA00B200E300CD00E300E300E300C3
:10249000D00002F55842D2F8882002F00302032A45
:1024A00009D8DFE802F0020438060122DBE7042243
:1024B000D9E70822D7E71022D5E702F5E632D2F8AD
:1024C000882002F00C020C2A0ED8DFE802F0070D7B
:1024D0000D0D090D0D0D260D0D0D0B000022C2E78F
:1024E0000422C0E70822BEE71022BCE702F5C8328A
:1024F000D2F8882002F44062B2F5006F0FD005D800
:102500007AB1B2F5806F0ED10422ACE7B2F5406F1C
:102510000BD10822A7E70222A5E70222A3E70222A5
:10252000A1E700229FE710229DE710229BE7082ADF
:1025300079D8DFE802F008782A78277878780500DB
:102540004FF4004003E0FFF777FB00286DD062688E
:1025500002EB420383426AD8B0EB023F69D8010E16
:1025600000025308C0184FF0000341F10001FDF7CD
:10257000C9FEA0F540723B4B9A425CD82368D860F4
:10258000002043E0FEF7FEFEDFE73748DFE7082ADA
:1025900053D8DFE802F007210552245252520B00B3
:1025A000314803E0FFF748FB002848D06268530831
:1025B00003EB4000B0FBF2F0A0F110024FF6EF7316
:1025C0009A423ED883B223F00F03C0F3420018436F
:1025D0002368D860002019E0FFF740FBE4E7FEF72E
:1025E000D1FEE1E7204802E0FFF726FB68B363680D
:1025F00000EB5300B0FBF3F0A0F110024FF6EF73C5
:102600009A4224D8236880B2D860002000236366F1
:10261000A36610BDFFF722FBE8E7FEF7B3FEE5E790
:102620004FF40040E3E70120F0E70020EEE701204F
:10263000ECE70120EAE70120E8E70120E6E70020D7
:10264000E4E70120E2E70120E0E70020DEE70120E7
:10265000DCE700BFF369FFEF008000400038014075
:1026600000440040FFFC0F000024F400436A13F014
:10267000010F06D00268536823F40033816A0B43CC
:102680005360436A13F0020F06D00268536823F4C4
:102690008033C16A0B435360436A13F0040F06D0C2
:1026A0000268536823F48023016B0B435360436A31
:1026B00013F0080F06D00268536823F40043416BFF
:1026C0000B435360436A13F0100F06D002689368FF
:1026D00023F48053816B0B439360436A13F0200F04
:1026E00006D00268936823F40053C16B0B439360D8
:1026F000436A13F0400F0AD00268536823F4801332
:10270000016C0B435360036CB3F5801F0BD0436A1D
:1027100013F0800F06D00268536823F40023816C05
:102720000B43536070470268536823F4C003416C45
:102730000B435360EBE72DE9F84305460F46164679
:102740009946DDF820802C68E46937EA04030CBF61
:102750004FF0010C4FF0000CB44553D1B8F1FF3FDE
:10276000F1D0FEF7ADFDA0EB090040452DD8B8F142
:10277000000F2AD02B681A6812F0040FE3D0DA6930
:1027800012F4006FDFD04FF400621A622A6852E838
:10279000003F23F4D07342E800310029F6D12A68C3
:1027A00002F1080353E8003F23F00103083242E836
:1027B00000310029F3D12023AB67EB67C5F88030E7
:1027C000002385F8743003201DE02A6852E8003F9A
:1027D00023F4D07342E800310029F6D12A6802F1CF
:1027E000080353E8003F23F00103083242E80031B8
:1027F0000029F3D12023AB67EB67002385F8743001
:10280000032000E00020BDE8F88330B583B0044623
:102810000023C0F88030FEF753FD05462268126899
:1028200012F0080F0DD123681B6813F0040F16D1A6
:102830002023A367E3670020206684F8740003B0B8
:1028400030BD6FF07E430093034600224FF4001129
:102850002046FFF770FF0028E5D00320EFE76FF078
:102860007E4300932B4600224FF480012046FFF761
:1028700062FF0028DCD00320E1E768B310B504460E
:10288000836F03B32423A3672268136823F0010333
:1028900013602046FFF7BAFD012813D0636ABBB965
:1028A0002268536823F4904353602268936823F0AE
:1028B0002A0393602268136843F0010313602046E3
:1028C000FFF7A3FF10BD80F87430FEF7FFF8D9E7DB
:1028D0002046FFF7CBFEE3E701207047034AD2F81A
:1028E000883043F47003C2F88830704700ED00E090
:1028F000DFF834D0FFF7F2FF0C480D490D4A0023F2
:1029000002E0D458C4500433C4188C42F9D30A4AA4
:102910000A4C002301E013600432A242FBD3FDF70E
:102920007BFCFDF7CDFFFEE700000120000000204A
:1029300010000020C0290008100000204C010020D9
:10294000FEE70000F8B500BFF8BC08BC9E46704723
:10295000F8B500BFF8BC08BC9E46704700000000F8
:10296000000000000000000001020304060708093F
:102970000000000001020304A0860100400D0300D6
:10298000801A060000350C0040420F0080841E00B3
:1029900000093D0000127A000024F40000366E01A8
:0829A0000048E801006CDC02B4
:0829A8008CD9FF7F0100000043
:0829B000F9010008000000001D
:0829B800D1010008000000003D
:1029C000010000001000000000093D0000000000B0
:04000005080028F1D6
:00000001FF
